{"contracts/PlaceholderVerifier.sol":{"PlaceholderVerifier":{"abi":[{"inputs":[],"name":"getVersion","outputs":[{"internalType":"string","name":"","type":"string"}],"stateMutability":"pure","type":"function"},{"inputs":[{"internalType":"uint256[2]","name":"_pA","type":"uint256[2]"},{"internalType":"uint256[2][2]","name":"_pB","type":"uint256[2][2]"},{"internalType":"uint256[2]","name":"_pC","type":"uint256[2]"},{"internalType":"uint256[1]","name":"_publicSignals","type":"uint256[1]"}],"name":"verifyProof","outputs":[{"internalType":"bool","name":"","type":"bool"}],"stateMutability":"pure","type":"function"}],"evm":{"bytecode":{"linkReferences":{},"object":"608060405234801561001057600080fd5b50610447806100206000396000f3fe608060405234801561001057600080fd5b50600436106100365760003560e01c80630d8e6e2c1461003b57806343753b4d14610059575b600080fd5b61004361007c565b6040516100509190610312565b60405180910390f35b61006c610067366004610228565b61009c565b6040519015158152602001610050565b60606040518060800160405280604481526020016103ce60449139905090565b83516000901515806100b15750602085015115155b6100fa5760405162461bcd60e51b8152602060048201526015602482015274496e76616c69642070726f6f6620706f696e74204160581b60448201526064015b60405180910390fd5b83515115158061010e575083516020015115155b8061011d575060208401515115155b8061012e5750602080850151015115155b6101725760405162461bcd60e51b815260206004820152601560248201527424b73b30b634b210383937b7b3103837b4b73a102160591b60448201526064016100f1565b82511515806101845750602083015115155b6101c85760405162461bcd60e51b8152602060048201526015602482015274496e76616c69642070726f6f6620706f696e74204360581b60448201526064016100f1565b506001949350505050565b600082601f8301126101e3578081fd5b6101eb610365565b8083856040860111156101fc578384fd5b835b600281101561021d5781358452602093840193909101906001016101fe565b509095945050505050565b60008060008061012080868803121561023f578485fd5b61024987876101d3565b9450604087605f88011261025b578485fd5b610263610365565b8082890160c08a018b811115610277578889fd5b885b60028110156102a05761028c8d846101d3565b855260209094019391850191600101610279565b508298506102ae8c826101d3565b975050505050508661011f8701126102c4578182fd5b6102cc61039c565b80610100880189848a0111156102e0578485fd5b8493505b6001841015610304578035835260019390930192602092830192016102e4565b509598949750929550505050565b6000602080835283518082850152825b8181101561033e57858101830151858201604001528201610322565b8181111561034f5783604083870101525b50601f01601f1916929092016040019392505050565b6040805190810167ffffffffffffffff8111828210171561039657634e487b7160e01b600052604160045260246000fd5b60405290565b6040516020810167ffffffffffffffff8111828210171561039657634e487b7160e01b600052604160045260246000fdfe506c616365686f6c64657256657269666965722076312e302e30202d205265706c616365207769746820636972637569742d67656e657261746564207665726966696572a2646970667358221220f991af94050df8aa2658217dad9bc77e43ccdb1a6e6617af6707ff5472dbf1e464736f6c63430008040033","opcodes":"PUSH1 0x80 PUSH1 0x40 MSTORE CALLVALUE DUP1 ISZERO PUSH2 0x10 JUMPI PUSH1 0x0 DUP1 REVERT JUMPDEST POP PUSH2 0x447 DUP1 PUSH2 0x20 PUSH1 0x0 CODECOPY PUSH1 0x0 RETURN INVALID PUSH1 0x80 PUSH1 0x40 MSTORE CALLVALUE DUP1 ISZERO PUSH2 0x10 JUMPI PUSH1 0x0 DUP1 REVERT JUMPDEST POP PUSH1 0x4 CALLDATASIZE LT PUSH2 0x36 JUMPI PUSH1 0x0 CALLDATALOAD PUSH1 0xE0 SHR DUP1 PUSH4 0xD8E6E2C EQ PUSH2 0x3B JUMPI DUP1 PUSH4 0x43753B4D EQ PUSH2 0x59 JUMPI JUMPDEST PUSH1 0x0 DUP1 REVERT JUMPDEST PUSH2 0x43 PUSH2 0x7C JUMP JUMPDEST PUSH1 0x40 MLOAD PUSH2 0x50 SWAP2 SWAP1 PUSH2 0x312 JUMP JUMPDEST PUSH1 0x40 MLOAD DUP1 SWAP2 SUB SWAP1 RETURN JUMPDEST PUSH2 0x6C PUSH2 0x67 CALLDATASIZE PUSH1 0x4 PUSH2 0x228 JUMP JUMPDEST PUSH2 0x9C JUMP JUMPDEST PUSH1 0x40 MLOAD SWAP1 ISZERO ISZERO DUP2 MSTORE PUSH1 0x20 ADD PUSH2 0x50 JUMP JUMPDEST PUSH1 0x60 PUSH1 0x40 MLOAD DUP1 PUSH1 0x80 ADD PUSH1 0x40 MSTORE DUP1 PUSH1 0x44 DUP2 MSTORE PUSH1 0x20 ADD PUSH2 0x3CE PUSH1 0x44 SWAP2 CODECOPY SWAP1 POP SWAP1 JUMP JUMPDEST DUP4 MLOAD PUSH1 0x0 SWAP1 ISZERO ISZERO DUP1 PUSH2 0xB1 JUMPI POP PUSH1 0x20 DUP6 ADD MLOAD ISZERO ISZERO JUMPDEST PUSH2 0xFA JUMPI PUSH1 0x40 MLOAD PUSH3 0x461BCD PUSH1 0xE5 SHL DUP2 MSTORE PUSH1 0x20 PUSH1 0x4 DUP3 ADD MSTORE PUSH1 0x15 PUSH1 0x24 DUP3 ADD MSTORE PUSH21 0x496E76616C69642070726F6F6620706F696E742041 PUSH1 0x58 SHL PUSH1 0x44 DUP3 ADD MSTORE PUSH1 0x64 ADD JUMPDEST PUSH1 0x40 MLOAD DUP1 SWAP2 SUB SWAP1 REVERT JUMPDEST DUP4 MLOAD MLOAD ISZERO ISZERO DUP1 PUSH2 0x10E JUMPI POP DUP4 MLOAD PUSH1 0x20 ADD MLOAD ISZERO ISZERO JUMPDEST DUP1 PUSH2 0x11D JUMPI POP PUSH1 0x20 DUP5 ADD MLOAD MLOAD ISZERO ISZERO JUMPDEST DUP1 PUSH2 0x12E JUMPI POP PUSH1 0x20 DUP1 DUP6 ADD MLOAD ADD MLOAD ISZERO ISZERO JUMPDEST PUSH2 0x172 JUMPI PUSH1 0x40 MLOAD PUSH3 0x461BCD PUSH1 0xE5 SHL DUP2 MSTORE PUSH1 0x20 PUSH1 0x4 DUP3 ADD MSTORE PUSH1 0x15 PUSH1 0x24 DUP3 ADD MSTORE PUSH21 0x24B73B30B634B210383937B7B3103837B4B73A1021 PUSH1 0x59 SHL PUSH1 0x44 DUP3 ADD MSTORE PUSH1 0x64 ADD PUSH2 0xF1 JUMP JUMPDEST DUP3 MLOAD ISZERO ISZERO DUP1 PUSH2 0x184 JUMPI POP PUSH1 0x20 DUP4 ADD MLOAD ISZERO ISZERO JUMPDEST PUSH2 0x1C8 JUMPI PUSH1 0x40 MLOAD PUSH3 0x461BCD PUSH1 0xE5 SHL DUP2 MSTORE PUSH1 0x20 PUSH1 0x4 DUP3 ADD MSTORE PUSH1 0x15 PUSH1 0x24 DUP3 ADD MSTORE PUSH21 0x496E76616C69642070726F6F6620706F696E742043 PUSH1 0x58 SHL PUSH1 0x44 DUP3 ADD MSTORE PUSH1 0x64 ADD PUSH2 0xF1 JUMP JUMPDEST POP PUSH1 0x1 SWAP5 SWAP4 POP POP POP POP JUMP JUMPDEST PUSH1 0x0 DUP3 PUSH1 0x1F DUP4 ADD SLT PUSH2 0x1E3 JUMPI DUP1 DUP2 REVERT JUMPDEST PUSH2 0x1EB PUSH2 0x365 JUMP JUMPDEST DUP1 DUP4 DUP6 PUSH1 0x40 DUP7 ADD GT ISZERO PUSH2 0x1FC JUMPI DUP4 DUP5 REVERT JUMPDEST DUP4 JUMPDEST PUSH1 0x2 DUP2 LT ISZERO PUSH2 0x21D JUMPI DUP2 CALLDATALOAD DUP5 MSTORE PUSH1 0x20 SWAP4 DUP5 ADD SWAP4 SWAP1 SWAP2 ADD SWAP1 PUSH1 0x1 ADD PUSH2 0x1FE JUMP JUMPDEST POP SWAP1 SWAP6 SWAP5 POP POP POP POP POP JUMP JUMPDEST PUSH1 0x0 DUP1 PUSH1 0x0 DUP1 PUSH2 0x120 DUP1 DUP7 DUP9 SUB SLT ISZERO PUSH2 0x23F JUMPI DUP5 DUP6 REVERT JUMPDEST PUSH2 0x249 DUP8 DUP8 PUSH2 0x1D3 JUMP JUMPDEST SWAP5 POP PUSH1 0x40 DUP8 PUSH1 0x5F DUP9 ADD SLT PUSH2 0x25B JUMPI DUP5 DUP6 REVERT JUMPDEST PUSH2 0x263 PUSH2 0x365 JUMP JUMPDEST DUP1 DUP3 DUP10 ADD PUSH1 0xC0 DUP11 ADD DUP12 DUP2 GT ISZERO PUSH2 0x277 JUMPI DUP9 DUP10 REVERT JUMPDEST DUP9 JUMPDEST PUSH1 0x2 DUP2 LT ISZERO PUSH2 0x2A0 JUMPI PUSH2 0x28C DUP14 DUP5 PUSH2 0x1D3 JUMP JUMPDEST DUP6 MSTORE PUSH1 0x20 SWAP1 SWAP5 ADD SWAP4 SWAP2 DUP6 ADD SWAP2 PUSH1 0x1 ADD PUSH2 0x279 JUMP JUMPDEST POP DUP3 SWAP9 POP PUSH2 0x2AE DUP13 DUP3 PUSH2 0x1D3 JUMP JUMPDEST SWAP8 POP POP POP POP POP POP DUP7 PUSH2 0x11F DUP8 ADD SLT PUSH2 0x2C4 JUMPI DUP2 DUP3 REVERT JUMPDEST PUSH2 0x2CC PUSH2 0x39C JUMP JUMPDEST DUP1 PUSH2 0x100 DUP9 ADD DUP10 DUP5 DUP11 ADD GT ISZERO PUSH2 0x2E0 JUMPI DUP5 DUP6 REVERT JUMPDEST DUP5 SWAP4 POP JUMPDEST PUSH1 0x1 DUP5 LT ISZERO PUSH2 0x304 JUMPI DUP1 CALLDATALOAD DUP4 MSTORE PUSH1 0x1 SWAP4 SWAP1 SWAP4 ADD SWAP3 PUSH1 0x20 SWAP3 DUP4 ADD SWAP3 ADD PUSH2 0x2E4 JUMP JUMPDEST POP SWAP6 SWAP9 SWAP5 SWAP8 POP SWAP3 SWAP6 POP POP POP POP JUMP JUMPDEST PUSH1 0x0 PUSH1 0x20 DUP1 DUP4 MSTORE DUP4 MLOAD DUP1 DUP3 DUP6 ADD MSTORE DUP3 JUMPDEST DUP2 DUP2 LT ISZERO PUSH2 0x33E JUMPI DUP6 DUP2 ADD DUP4 ADD MLOAD DUP6 DUP3 ADD PUSH1 0x40 ADD MSTORE DUP3 ADD PUSH2 0x322 JUMP JUMPDEST DUP2 DUP2 GT ISZERO PUSH2 0x34F JUMPI DUP4 PUSH1 0x40 DUP4 DUP8 ADD ADD MSTORE JUMPDEST POP PUSH1 0x1F ADD PUSH1 0x1F NOT AND SWAP3 SWAP1 SWAP3 ADD PUSH1 0x40 ADD SWAP4 SWAP3 POP POP POP JUMP JUMPDEST PUSH1 0x40 DUP1 MLOAD SWAP1 DUP2 ADD PUSH8 0xFFFFFFFFFFFFFFFF DUP2 GT DUP3 DUP3 LT OR ISZERO PUSH2 0x396 JUMPI PUSH4 0x4E487B71 PUSH1 0xE0 SHL PUSH1 0x0 MSTORE PUSH1 0x41 PUSH1 0x4 MSTORE PUSH1 0x24 PUSH1 0x0 REVERT JUMPDEST PUSH1 0x40 MSTORE SWAP1 JUMP JUMPDEST PUSH1 0x40 MLOAD PUSH1 0x20 DUP2 ADD PUSH8 0xFFFFFFFFFFFFFFFF DUP2 GT DUP3 DUP3 LT OR ISZERO PUSH2 0x396 JUMPI PUSH4 0x4E487B71 PUSH1 0xE0 SHL PUSH1 0x0 MSTORE PUSH1 0x41 PUSH1 0x4 MSTORE PUSH1 0x24 PUSH1 0x0 REVERT INVALID POP PUSH13 0x616365686F6C64657256657269 PUSH7 0x6965722076312E ADDRESS 0x2E ADDRESS KECCAK256 0x2D KECCAK256 MSTORE PUSH6 0x706C61636520 PUSH24 0x69746820636972637569742D67656E657261746564207665 PUSH19 0x6966696572A2646970667358221220F991AF94 SDIV 0xD 0xF8 0xAA 0x26 PC 0x21 PUSH30 0xAD9BC77E43CCDB1A6E6617AF6707FF5472DBF1E464736F6C634300080400 CALLER "},"methodIdentifiers":{"getVersion()":"0d8e6e2c","verifyProof(uint256[2],uint256[2][2],uint256[2],uint256[1])":"43753b4d"}},"storageLayout":{"storage":[],"types":null}}}}