{
  "_format": "hh-sol-artifact-1",
  "contractName": "PlaceholderVerifier",
  "sourceName": "contracts/PlaceholderVerifier.sol",
  "abi": [
    {
      "inputs": [],
      "name": "getVersion",
      "outputs": [
        {
          "internalType": "string",
          "name": "",
          "type": "string"
        }
      ],
      "stateMutability": "pure",
      "type": "function"
    },
    {
      "inputs": [
        {
          "internalType": "uint256[2]",
          "name": "_pA",
          "type": "uint256[2]"
        },
        {
          "internalType": "uint256[2][2]",
          "name": "_pB",
          "type": "uint256[2][2]"
        },
        {
          "internalType": "uint256[2]",
          "name": "_pC",
          "type": "uint256[2]"
        },
        {
          "internalType": "uint256[1]",
          "name": "_publicSignals",
          "type": "uint256[1]"
        }
      ],
      "name": "verifyProof",
      "outputs": [
        {
          "internalType": "bool",
          "name": "",
          "type": "bool"
        }
      ],
      "stateMutability": "pure",
      "type": "function"
    }
  ],
  "bytecode": "0x608060405234801561001057600080fd5b50610447806100206000396000f3fe608060405234801561001057600080fd5b50600436106100365760003560e01c80630d8e6e2c1461003b57806343753b4d14610059575b600080fd5b61004361007c565b6040516100509190610312565b60405180910390f35b61006c610067366004610228565b61009c565b6040519015158152602001610050565b60606040518060800160405280604481526020016103ce60449139905090565b83516000901515806100b15750602085015115155b6100fa5760405162461bcd60e51b8152602060048201526015602482015274496e76616c69642070726f6f6620706f696e74204160581b60448201526064015b60405180910390fd5b83515115158061010e575083516020015115155b8061011d575060208401515115155b8061012e5750602080850151015115155b6101725760405162461bcd60e51b815260206004820152601560248201527424b73b30b634b210383937b7b3103837b4b73a102160591b60448201526064016100f1565b82511515806101845750602083015115155b6101c85760405162461bcd60e51b8152602060048201526015602482015274496e76616c69642070726f6f6620706f696e74204360581b60448201526064016100f1565b506001949350505050565b600082601f8301126101e3578081fd5b6101eb610365565b8083856040860111156101fc578384fd5b835b600281101561021d5781358452602093840193909101906001016101fe565b509095945050505050565b60008060008061012080868803121561023f578485fd5b61024987876101d3565b9450604087605f88011261025b578485fd5b610263610365565b8082890160c08a018b811115610277578889fd5b885b60028110156102a05761028c8d846101d3565b855260209094019391850191600101610279565b508298506102ae8c826101d3565b975050505050508661011f8701126102c4578182fd5b6102cc61039c565b80610100880189848a0111156102e0578485fd5b8493505b6001841015610304578035835260019390930192602092830192016102e4565b509598949750929550505050565b6000602080835283518082850152825b8181101561033e57858101830151858201604001528201610322565b8181111561034f5783604083870101525b50601f01601f1916929092016040019392505050565b6040805190810167ffffffffffffffff8111828210171561039657634e487b7160e01b600052604160045260246000fd5b60405290565b6040516020810167ffffffffffffffff8111828210171561039657634e487b7160e01b600052604160045260246000fdfe506c616365686f6c64657256657269666965722076312e302e30202d205265706c616365207769746820636972637569742d67656e657261746564207665726966696572a2646970667358221220f991af94050df8aa2658217dad9bc77e43ccdb1a6e6617af6707ff5472dbf1e464736f6c63430008040033",
  "linkReferences": {},
  "deployedLinkReferences": {}
}