{
  "_format": "hh-sol-artifact-1",
  "contractName": "ZKCertificateSystem",
  "sourceName": "contracts/ZKCertificateSystem.sol",
  "abi": [
    {
      "inputs": [
        {
          "internalType": "address",
          "name": "_verifier",
          "type": "address"
        }
      ],
      "stateMutability": "nonpayable",
      "type": "constructor"
    },
    {
      "anonymous": false,
      "inputs": [
        {
          "indexed": true,
          "internalType": "uint256",
          "name": "batchId",
          "type": "uint256"
        },
        {
          "indexed": true,
          "internalType": "bytes32",
          "name": "merkleRoot",
          "type": "bytes32"
        },
        {
          "indexed": false,
          "internalType": "string",
          "name": "institutionName",
          "type": "string"
        },
        {
          "indexed": false,
          "internalType": "string",
          "name": "courseName",
          "type": "string"
        },
        {
          "indexed": false,
          "internalType": "uint256",
          "name": "graduationYear",
          "type": "uint256"
        },
        {
          "indexed": false,
          "internalType": "uint256",
          "name": "totalStudents",
          "type": "uint256"
        }
      ],
      "name": "BatchIssued",
      "type": "event"
    },
    {
      "anonymous": false,
      "inputs": [
        {
          "indexed": true,
          "internalType": "uint256",
          "name": "batchId",
          "type": "uint256"
        }
      ],
      "name": "BatchRevoked",
      "type": "event"
    },
    {
      "anonymous": false,
      "inputs": [
        {
          "indexed": true,
          "internalType": "address",
          "name": "institution",
          "type": "address"
        },
        {
          "indexed": false,
          "internalType": "bool",
          "name": "authorized",
          "type": "bool"
        }
      ],
      "name": "InstitutionAuthorized",
      "type": "event"
    },
    {
      "anonymous": false,
      "inputs": [
        {
          "indexed": true,
          "internalType": "address",
          "name": "previousOwner",
          "type": "address"
        },
        {
          "indexed": true,
          "internalType": "address",
          "name": "newOwner",
          "type": "address"
        }
      ],
      "name": "OwnershipTransferred",
      "type": "event"
    },
    {
      "anonymous": false,
      "inputs": [
        {
          "indexed": true,
          "internalType": "address",
          "name": "student",
          "type": "address"
        },
        {
          "indexed": true,
          "internalType": "uint256",
          "name": "batchId",
          "type": "uint256"
        },
        {
          "indexed": false,
          "internalType": "uint256",
          "name": "minPassingGrade",
          "type": "uint256"
        },
        {
          "indexed": false,
          "internalType": "bool",
          "name": "allSubjectsPassed",
          "type": "bool"
        }
      ],
      "name": "ZKProofVerified",
      "type": "event"
    },
    {
      "inputs": [
        {
          "internalType": "address",
          "name": "",
          "type": "address"
        }
      ],
      "name": "authorizedInstitutions",
      "outputs": [
        {
          "internalType": "bool",
          "name": "",
          "type": "bool"
        }
      ],
      "stateMutability": "view",
      "type": "function"
    },
    {
      "inputs": [
        {
          "internalType": "uint256",
          "name": "",
          "type": "uint256"
        }
      ],
      "name": "batches",
      "outputs": [
        {
          "internalType": "bytes32",
          "name": "merkleRoot",
          "type": "bytes32"
        },
        {
          "internalType": "string",
          "name": "institutionName",
          "type": "string"
        },
        {
          "internalType": "string",
          "name": "courseName",
          "type": "string"
        },
        {
          "internalType": "uint256",
          "name": "graduationYear",
          "type": "uint256"
        },
        {
          "internalType": "uint256",
          "name": "totalStudents",
          "type": "uint256"
        },
        {
          "internalType": "uint256",
          "name": "timestamp",
          "type": "uint256"
        },
        {
          "internalType": "bool",
          "name": "isValid",
          "type": "bool"
        }
      ],
      "stateMutability": "view",
      "type": "function"
    },
    {
      "inputs": [
        {
          "internalType": "uint256",
          "name": "batchId",
          "type": "uint256"
        }
      ],
      "name": "getBatchInfo",
      "outputs": [
        {
          "internalType": "bytes32",
          "name": "merkleRoot",
          "type": "bytes32"
        },
        {
          "internalType": "string",
          "name": "institutionName",
          "type": "string"
        },
        {
          "internalType": "string",
          "name": "courseName",
          "type": "string"
        },
        {
          "internalType": "uint256",
          "name": "graduationYear",
          "type": "uint256"
        },
        {
          "internalType": "uint256",
          "name": "totalStudents",
          "type": "uint256"
        },
        {
          "internalType": "uint256",
          "name": "timestamp",
          "type": "uint256"
        },
        {
          "internalType": "bool",
          "name": "isValid",
          "type": "bool"
        }
      ],
      "stateMutability": "view",
      "type": "function"
    },
    {
      "inputs": [
        {
          "internalType": "uint256",
          "name": "batchId",
          "type": "uint256"
        }
      ],
      "name": "getBatchVerificationCount",
      "outputs": [
        {
          "internalType": "uint256",
          "name": "",
          "type": "uint256"
        }
      ],
      "stateMutability": "view",
      "type": "function"
    },
    {
      "inputs": [],
      "name": "getTotalBatches",
      "outputs": [
        {
          "internalType": "uint256",
          "name": "",
          "type": "uint256"
        }
      ],
      "stateMutability": "view",
      "type": "function"
    },
    {
      "inputs": [
        {
          "internalType": "bytes32",
          "name": "merkleRoot",
          "type": "bytes32"
        },
        {
          "internalType": "string",
          "name": "institutionName",
          "type": "string"
        },
        {
          "internalType": "string",
          "name": "courseName",
          "type": "string"
        },
        {
          "internalType": "uint256",
          "name": "graduationYear",
          "type": "uint256"
        },
        {
          "internalType": "uint256",
          "name": "totalStudents",
          "type": "uint256"
        }
      ],
      "name": "issueBatch",
      "outputs": [
        {
          "internalType": "uint256",
          "name": "",
          "type": "uint256"
        }
      ],
      "stateMutability": "nonpayable",
      "type": "function"
    },
    {
      "inputs": [],
      "name": "nextBatchId",
      "outputs": [
        {
          "internalType": "uint256",
          "name": "",
          "type": "uint256"
        }
      ],
      "stateMutability": "view",
      "type": "function"
    },
    {
      "inputs": [],
      "name": "owner",
      "outputs": [
        {
          "internalType": "address",
          "name": "",
          "type": "address"
        }
      ],
      "stateMutability": "view",
      "type": "function"
    },
    {
      "inputs": [],
      "name": "renounceOwnership",
      "outputs": [],
      "stateMutability": "nonpayable",
      "type": "function"
    },
    {
      "inputs": [
        {
          "internalType": "uint256",
          "name": "batchId",
          "type": "uint256"
        }
      ],
      "name": "revokeBatch",
      "outputs": [],
      "stateMutability": "nonpayable",
      "type": "function"
    },
    {
      "inputs": [
        {
          "internalType": "address",
          "name": "institution",
          "type": "address"
        },
        {
          "internalType": "bool",
          "name": "authorized",
          "type": "bool"
        }
      ],
      "name": "setInstitutionAuthorization",
      "outputs": [],
      "stateMutability": "nonpayable",
      "type": "function"
    },
    {
      "inputs": [
        {
          "internalType": "address",
          "name": "newOwner",
          "type": "address"
        }
      ],
      "name": "transferOwnership",
      "outputs": [],
      "stateMutability": "nonpayable",
      "type": "function"
    },
    {
      "inputs": [],
      "name": "verifier",
      "outputs": [
        {
          "internalType": "contract IVerifier",
          "name": "",
          "type": "address"
        }
      ],
      "stateMutability": "view",
      "type": "function"
    },
    {
      "inputs": [
        {
          "components": [
            {
              "internalType": "uint256[2]",
              "name": "a",
              "type": "uint256[2]"
            },
            {
              "internalType": "uint256[2][2]",
              "name": "b",
              "type": "uint256[2][2]"
            },
            {
              "internalType": "uint256[2]",
              "name": "c",
              "type": "uint256[2]"
            }
          ],
          "internalType": "struct ZKProof",
          "name": "proof",
          "type": "tuple"
        },
        {
          "internalType": "uint256",
          "name": "batchId",
          "type": "uint256"
        },
        {
          "internalType": "uint256",
          "name": "minPassingGrade",
          "type": "uint256"
        },
        {
          "internalType": "bool",
          "name": "requiresAllSubjectsPassed",
          "type": "bool"
        }
      ],
      "name": "verifyAcademicAchievement",
      "outputs": [
        {
          "internalType": "bool",
          "name": "",
          "type": "bool"
        }
      ],
      "stateMutability": "nonpayable",
      "type": "function"
    },
    {
      "inputs": [
        {
          "components": [
            {
              "internalType": "uint256[2]",
              "name": "a",
              "type": "uint256[2]"
            },
            {
              "internalType": "uint256[2][2]",
              "name": "b",
              "type": "uint256[2][2]"
            },
            {
              "internalType": "uint256[2]",
              "name": "c",
              "type": "uint256[2]"
            }
          ],
          "internalType": "struct ZKProof",
          "name": "proof",
          "type": "tuple"
        },
        {
          "internalType": "uint256",
          "name": "batchId",
          "type": "uint256"
        }
      ],
      "name": "verifyBasicCertificate",
      "outputs": [
        {
          "internalType": "bool",
          "name": "",
          "type": "bool"
        }
      ],
      "stateMutability": "nonpayable",
      "type": "function"
    },
    {
      "inputs": [
        {
          "internalType": "uint256",
          "name": "batchId",
          "type": "uint256"
        },
        {
          "internalType": "bytes32",
          "name": "certificateHash",
          "type": "bytes32"
        },
        {
          "internalType": "bytes32[]",
          "name": "merkleProof",
          "type": "bytes32[]"
        }
      ],
      "name": "verifyCertificate",
      "outputs": [
        {
          "internalType": "bool",
          "name": "",
          "type": "bool"
        }
      ],
      "stateMutability": "view",
      "type": "function"
    }
  ],
  "bytecode": "0x60a060405234801561001057600080fd5b506040516200195b3803806200195b8339810160408190526100319161011d565b61003a336100cd565b60018080556004819055336000908152600360205260409020805460ff191690911790556001600160a01b0381166100b85760405162461bcd60e51b815260206004820152601860248201527f496e76616c696420766572696669657220616464726573730000000000000000604482015260640160405180910390fd5b60601b6001600160601b03191660805261014b565b600080546001600160a01b038381166001600160a01b0319831681178455604051919092169283917f8be0079c531659141344cd1fd0a4f28419497f9722a3daafe3b4186f6b6457e09190a35050565b60006020828403121561012e578081fd5b81516001600160a01b0381168114610144578182fd5b9392505050565b60805160601c6117e3620001786000396000818161019c015281816102f401526109ab01526117e36000f3fe608060405234801561001057600080fd5b50600436106101005760003560e01c80638da5cb5b11610097578063d56e312d11610066578063d56e312d14610246578063e561dddc14610259578063eb7aadfc14610261578063f2fde38b1461027457600080fd5b80638da5cb5b146101fc5780639e104b2e1461020d578063b32c4d8d14610220578063baf75bdc1461023357600080fd5b80632b7ac3f3116100d35780632b7ac3f314610197578063453b777b146101d6578063715018a6146101e95780638462a7f8146101f357600080fd5b80630ec7531e14610105578063114092631461012d57806316b784fe1461014e5780631a0058f514610171575b600080fd5b610118610113366004611327565b610287565b60405190151581526020015b60405180910390f35b61014061013b36600461139f565b6103cc565b604051908152602001610124565b61011861015c36600461123f565b60036020526000908152604090205460ff1681565b61018461017f36600461139f565b610434565b604051610124979695949392919061156c565b6101be7f000000000000000000000000000000000000000000000000000000000000000081565b6040516001600160a01b039091168152602001610124565b6101186101e43660046113b7565b610605565b6101f1610651565b005b61014060045481565b6000546001600160a01b03166101be565b6101f161021b36600461139f565b610665565b61018461022e36600461139f565b61073e565b610118610241366004611353565b61088d565b6101f1610254366004611259565b610a85565b610140610aec565b61014061026f3660046112ab565b610b02565b6101f161028236600461123f565b610e0a565b60008181526002602052604081206006015460ff166102c15760405162461bcd60e51b81526004016102b8906115f9565b60405180910390fd5b60408051602080820183528482528551908601518684015193516343753b4d60e01b815292936000936001600160a01b037f000000000000000000000000000000000000000000000000000000000000000016936343753b4d9361032e93919290919088906004016114e8565b60206040518083038186803b15801561034657600080fd5b505afa15801561035a573d6000803e3d6000fd5b505050506040513d601f19601f8201168201806040525081019061037e919061128f565b905080156103c4576040805160008082526020820152859133917f98a0c5c8cc8a23819f86cff118b7129416d13463f6b2d13bf41581509f09e7eb910160405180910390a35b949350505050565b60008181526002602052604081205461041e5760405162461bcd60e51b815260206004820152601460248201527310985d18da08191bd95cc81b9bdd08195e1a5cdd60621b60448201526064016102b8565b5060009081526002602052604090206004015490565b60006060806000806000806000600260008a81526020019081526020016000206040518060e001604052908160008201548152602001600182018054610479906116fd565b80601f01602080910402602001604051908101604052809291908181526020018280546104a5906116fd565b80156104f25780601f106104c7576101008083540402835291602001916104f2565b820191906000526020600020905b8154815290600101906020018083116104d557829003601f168201915b5050505050815260200160028201805461050b906116fd565b80601f0160208091040260200160405190810160405280929190818152602001828054610537906116fd565b80156105845780601f1061055957610100808354040283529160200191610584565b820191906000526020600020905b81548152906001019060200180831161056757829003601f168201915b505050505081526020016003820154815260200160048201548152602001600582015481526020016006820160009054906101000a900460ff1615151515815250509050806000015181602001518260400151836060015184608001518560a001518660c00151975097509750975097509750975050919395979092949650565b60008381526002602052604081206006015460ff166106365760405162461bcd60e51b81526004016102b8906115f9565b6000848152600260205260409020546103c490839085610e83565b610659610e99565b6106636000610ef3565b565b3360009081526003602052604090205460ff168061068d57506000546001600160a01b031633145b6106a95760405162461bcd60e51b81526004016102b890611625565b6000818152600260205260409020546106fb5760405162461bcd60e51b815260206004820152601460248201527310985d18da08191bd95cc81b9bdd08195e1a5cdd60621b60448201526064016102b8565b600081815260026020526040808220600601805460ff191690555182917ff075b0007ae90c817a200a70f51834ddf8ef8f8f071b4a167588e83664474bbb91a250565b60026020526000908152604090208054600182018054919291610760906116fd565b80601f016020809104026020016040519081016040528092919081815260200182805461078c906116fd565b80156107d95780601f106107ae576101008083540402835291602001916107d9565b820191906000526020600020905b8154815290600101906020018083116107bc57829003601f168201915b5050505050908060020180546107ee906116fd565b80601f016020809104026020016040519081016040528092919081815260200182805461081a906116fd565b80156108675780601f1061083c57610100808354040283529160200191610867565b820191906000526020600020905b81548152906001019060200180831161084a57829003601f168201915b505050506003830154600484015460058501546006909501549394919390925060ff1687565b60008381526002602052604081206006015460ff166108be5760405162461bcd60e51b81526004016102b8906115f9565b6000831180156108cf575060648311155b6109135760405162461bcd60e51b8152602060048201526015602482015274496e76616c69642070617373696e6720677261646560581b60448201526064016102b8565b60408051602080820187905281830186905284151560f81b60608301528251604181840301815260619092019092528051910120600090610975907f30644e72e131a029b85045b68181585d2833e84879b9709143e1f593f000000190611753565b60408051602080820183528382528951908a01518a84015193516343753b4d60e01b815294955091936000936001600160a01b037f000000000000000000000000000000000000000000000000000000000000000016936343753b4d936109e39390929088906004016114e8565b60206040518083038186803b1580156109fb57600080fd5b505afa158015610a0f573d6000803e3d6000fd5b505050506040513d601f19601f82011682018060405250810190610a33919061128f565b90508015610a7a57604080518781528615156020820152889133917f98a0c5c8cc8a23819f86cff118b7129416d13463f6b2d13bf41581509f09e7eb910160405180910390a35b979650505050505050565b610a8d610e99565b6001600160a01b038216600081815260036020908152604091829020805460ff191685151590811790915591519182527fb0b6b94fe25106d9d3c2f7bd955d23d9d06d1bb43a01fd4057e46374ccd5ee06910160405180910390a25050565b60006001600454610afd91906116e6565b905090565b3360009081526003602052604081205460ff1680610b2a57506000546001600160a01b031633145b610b465760405162461bcd60e51b81526004016102b890611625565b610b4e610f43565b85610b915760405162461bcd60e51b8152602060048201526013602482015272125b9d985b1a590813595c9adb19481c9bdbdd606a1b60448201526064016102b8565b6000855111610be25760405162461bcd60e51b815260206004820152601960248201527f496e737469747574696f6e206e616d652072657175697265640000000000000060448201526064016102b8565b6000845111610c2a5760405162461bcd60e51b815260206004820152601460248201527310dbdd5c9cd9481b985b59481c995c5d5a5c995960621b60448201526064016102b8565b61076c83118015610c3d57506108348311155b610c895760405162461bcd60e51b815260206004820152601760248201527f496e76616c69642067726164756174696f6e207965617200000000000000000060448201526064016102b8565b60008211610ce75760405162461bcd60e51b815260206004820152602560248201527f546f74616c2073747564656e7473206d75737420626520677265617465722074604482015264068616e20360dc1b60648201526084016102b8565b6004805460009182610cf883611738565b909155506040805160e08101825289815260208082018a81528284018a905260608301899052608083018890524260a0840152600160c0840181905260008681526002845294909420835181559051805195965092949093610d5f9390850192019061102a565b5060408201518051610d7b91600284019160209091019061102a565b50606082015160038201556080820151600482015560a0820151600582015560c0909101516006909101805460ff1916911515919091179055604051879082907f8f9c8d86617f597bea2644148f4406531cbb083b541917844eb040e654d959ca90610dee908a908a908a908a906115c0565b60405180910390a39050610e0160018055565b95945050505050565b610e12610e99565b6001600160a01b038116610e775760405162461bcd60e51b815260206004820152602660248201527f4f776e61626c653a206e6577206f776e657220697320746865207a65726f206160448201526564647265737360d01b60648201526084016102b8565b610e8081610ef3565b50565b600082610e908584610f9d565b14949350505050565b6000546001600160a01b031633146106635760405162461bcd60e51b815260206004820181905260248201527f4f776e61626c653a2063616c6c6572206973206e6f7420746865206f776e657260448201526064016102b8565b600080546001600160a01b038381166001600160a01b0319831681178455604051919092169283917f8be0079c531659141344cd1fd0a4f28419497f9722a3daafe3b4186f6b6457e09190a35050565b60026001541415610f965760405162461bcd60e51b815260206004820152601f60248201527f5265656e7472616e637947756172643a207265656e7472616e742063616c6c0060448201526064016102b8565b6002600155565b600081815b8451811015610ff057610fdc82868381518110610fcf57634e487b7160e01b600052603260045260246000fd5b6020026020010151610ff8565b915080610fe881611738565b915050610fa2565b509392505050565b6000818310611014576000828152602084905260409020611023565b60008381526020839052604090205b9392505050565b828054611036906116fd565b90600052602060002090601f016020900481019282611058576000855561109e565b82601f1061107157805160ff191683800117855561109e565b8280016001018555821561109e579182015b8281111561109e578251825591602001919060010190611083565b506110aa9291506110ae565b5090565b5b808211156110aa57600081556001016110af565b80356001600160a01b03811681146110da57600080fd5b919050565b600082601f8301126110ef578081fd5b6110f7611692565b808385604086011115611108578384fd5b835b600281101561112957813584526020938401939091019060010161110a565b509095945050505050565b600082601f830112611144578081fd5b813567ffffffffffffffff81111561115e5761115e611789565b611171601f8201601f19166020016116b5565b818152846020838601011115611185578283fd5b816020850160208301379081016020019190915292915050565b600061010082840312156111b1578081fd5b6111b9611669565b90506111c583836110df565b8152604083605f8401126111d857600080fd5b6111e0611692565b8082850160c08601878111156111f557600080fd5b60005b600281101561121f5761120b89846110df565b8552602090940193918501916001016111f8565b5082602087015261123088826110df565b85870152505050505092915050565b600060208284031215611250578081fd5b611023826110c3565b6000806040838503121561126b578081fd5b611274836110c3565b915060208301356112848161179f565b809150509250929050565b6000602082840312156112a0578081fd5b81516110238161179f565b600080600080600060a086880312156112c2578081fd5b85359450602086013567ffffffffffffffff808211156112e0578283fd5b6112ec89838a01611134565b95506040880135915080821115611301578283fd5b5061130e88828901611134565b9598949750949560608101359550608001359392505050565b600080610120838503121561133a578182fd5b611344848461119f565b94610100939093013593505050565b6000806000806101608587031215611369578384fd5b611373868661119f565b9350610100850135925061012085013591506101408501356113948161179f565b939692955090935050565b6000602082840312156113b0578081fd5b5035919050565b6000806000606084860312156113cb578081fd5b833592506020808501359250604085013567ffffffffffffffff808211156113f1578384fd5b818701915087601f830112611404578384fd5b81358181111561141657611416611789565b8060051b91506114278483016116b5565b8181528481019084860184860187018c1015611441578788fd5b8795505b83861015611463578035835260019590950194918601918601611445565b508096505050505050509250925092565b8060005b6002811015611497578151845260209384019390910190600101611478565b50505050565b60008151808452815b818110156114c2576020818501810151868301820152016114a6565b818111156114d35782602083870101525b50601f01601f19169290920160200192915050565b61012081016114f78287611474565b60408083018660005b600281101561152757611514838351611474565b9183019160209190910190600101611500565b5050505061153860c0830185611474565b61010082018360005b6001811015611560578151835260209283019290910190600101611541565b50505095945050505050565b87815260e06020820152600061158560e083018961149d565b8281036040840152611597818961149d565b9150508560608301528460808301528360a083015282151560c083015298975050505050505050565b6080815260006115d3608083018761149d565b82810360208401526115e5818761149d565b604084019590955250506060015292915050565b60208082526012908201527110985d18da081a5cc81b9bdd081d985b1a5960721b604082015260600190565b60208082526024908201527f4e6f7420617574686f72697a656420746f2069737375652063657274696669636040820152636174657360e01b606082015260800190565b6040516060810167ffffffffffffffff8111828210171561168c5761168c611789565b60405290565b6040805190810167ffffffffffffffff8111828210171561168c5761168c611789565b604051601f8201601f1916810167ffffffffffffffff811182821017156116de576116de611789565b604052919050565b6000828210156116f8576116f8611773565b500390565b600181811c9082168061171157607f821691505b6020821081141561173257634e487b7160e01b600052602260045260246000fd5b50919050565b600060001982141561174c5761174c611773565b5060010190565b60008261176e57634e487b7160e01b81526012600452602481fd5b500690565b634e487b7160e01b600052601160045260246000fd5b634e487b7160e01b600052604160045260246000fd5b8015158114610e8057600080fdfea264697066735822122099d00e55df7bf9b4799a2f399ad1c5e1300198dfb9052eba019657684d3ef10064736f6c63430008040033",
  "linkReferences": {},
  "deployedLinkReferences": {}
}