{
  "_format": "hh-sol-artifact-1",
  "contractName": "CertificateRegistry",
  "sourceName": "contracts/CertificateRegistry.sol",
  "abi": [
    {
      "inputs": [],
      "stateMutability": "nonpayable",
      "type": "constructor"
    },
    {
      "anonymous": false,
      "inputs": [
        {
          "indexed": true,
          "internalType": "uint256",
          "name": "batchId",
          "type": "uint256"
        },
        {
          "indexed": true,
          "internalType": "bytes32",
          "name": "merkleRoot",
          "type": "bytes32"
        },
        {
          "indexed": false,
          "internalType": "string",
          "name": "institutionName",
          "type": "string"
        },
        {
          "indexed": false,
          "internalType": "string",
          "name": "courseName",
          "type": "string"
        },
        {
          "indexed": false,
          "internalType": "uint256",
          "name": "graduationYear",
          "type": "uint256"
        },
        {
          "indexed": false,
          "internalType": "uint256",
          "name": "totalStudents",
          "type": "uint256"
        }
      ],
      "name": "BatchIssued",
      "type": "event"
    },
    {
      "anonymous": false,
      "inputs": [
        {
          "indexed": true,
          "internalType": "uint256",
          "name": "batchId",
          "type": "uint256"
        }
      ],
      "name": "BatchRevoked",
      "type": "event"
    },
    {
      "anonymous": false,
      "inputs": [
        {
          "indexed": true,
          "internalType": "address",
          "name": "institution",
          "type": "address"
        },
        {
          "indexed": false,
          "internalType": "bool",
          "name": "authorized",
          "type": "bool"
        }
      ],
      "name": "InstitutionAuthorized",
      "type": "event"
    },
    {
      "anonymous": false,
      "inputs": [
        {
          "indexed": true,
          "internalType": "address",
          "name": "previousOwner",
          "type": "address"
        },
        {
          "indexed": true,
          "internalType": "address",
          "name": "newOwner",
          "type": "address"
        }
      ],
      "name": "OwnershipTransferred",
      "type": "event"
    },
    {
      "inputs": [
        {
          "internalType": "address",
          "name": "",
          "type": "address"
        }
      ],
      "name": "authorizedInstitutions",
      "outputs": [
        {
          "internalType": "bool",
          "name": "",
          "type": "bool"
        }
      ],
      "stateMutability": "view",
      "type": "function"
    },
    {
      "inputs": [
        {
          "internalType": "uint256",
          "name": "",
          "type": "uint256"
        }
      ],
      "name": "batches",
      "outputs": [
        {
          "internalType": "bytes32",
          "name": "merkleRoot",
          "type": "bytes32"
        },
        {
          "internalType": "string",
          "name": "institutionName",
          "type": "string"
        },
        {
          "internalType": "string",
          "name": "courseName",
          "type": "string"
        },
        {
          "internalType": "uint256",
          "name": "graduationYear",
          "type": "uint256"
        },
        {
          "internalType": "uint256",
          "name": "totalStudents",
          "type": "uint256"
        },
        {
          "internalType": "uint256",
          "name": "timestamp",
          "type": "uint256"
        },
        {
          "internalType": "bool",
          "name": "isValid",
          "type": "bool"
        }
      ],
      "stateMutability": "view",
      "type": "function"
    },
    {
      "inputs": [
        {
          "internalType": "uint256",
          "name": "batchId",
          "type": "uint256"
        }
      ],
      "name": "getBatchInfo",
      "outputs": [
        {
          "internalType": "bytes32",
          "name": "merkleRoot",
          "type": "bytes32"
        },
        {
          "internalType": "string",
          "name": "institutionName",
          "type": "string"
        },
        {
          "internalType": "string",
          "name": "courseName",
          "type": "string"
        },
        {
          "internalType": "uint256",
          "name": "graduationYear",
          "type": "uint256"
        },
        {
          "internalType": "uint256",
          "name": "totalStudents",
          "type": "uint256"
        },
        {
          "internalType": "uint256",
          "name": "timestamp",
          "type": "uint256"
        },
        {
          "internalType": "bool",
          "name": "isValid",
          "type": "bool"
        }
      ],
      "stateMutability": "view",
      "type": "function"
    },
    {
      "inputs": [],
      "name": "getTotalBatches",
      "outputs": [
        {
          "internalType": "uint256",
          "name": "",
          "type": "uint256"
        }
      ],
      "stateMutability": "view",
      "type": "function"
    },
    {
      "inputs": [
        {
          "internalType": "bytes32",
          "name": "merkleRoot",
          "type": "bytes32"
        },
        {
          "internalType": "string",
          "name": "institutionName",
          "type": "string"
        },
        {
          "internalType": "string",
          "name": "courseName",
          "type": "string"
        },
        {
          "internalType": "uint256",
          "name": "graduationYear",
          "type": "uint256"
        },
        {
          "internalType": "uint256",
          "name": "totalStudents",
          "type": "uint256"
        }
      ],
      "name": "issueBatch",
      "outputs": [
        {
          "internalType": "uint256",
          "name": "",
          "type": "uint256"
        }
      ],
      "stateMutability": "nonpayable",
      "type": "function"
    },
    {
      "inputs": [],
      "name": "nextBatchId",
      "outputs": [
        {
          "internalType": "uint256",
          "name": "",
          "type": "uint256"
        }
      ],
      "stateMutability": "view",
      "type": "function"
    },
    {
      "inputs": [],
      "name": "owner",
      "outputs": [
        {
          "internalType": "address",
          "name": "",
          "type": "address"
        }
      ],
      "stateMutability": "view",
      "type": "function"
    },
    {
      "inputs": [],
      "name": "renounceOwnership",
      "outputs": [],
      "stateMutability": "nonpayable",
      "type": "function"
    },
    {
      "inputs": [
        {
          "internalType": "uint256",
          "name": "batchId",
          "type": "uint256"
        }
      ],
      "name": "revokeBatch",
      "outputs": [],
      "stateMutability": "nonpayable",
      "type": "function"
    },
    {
      "inputs": [
        {
          "internalType": "address",
          "name": "institution",
          "type": "address"
        },
        {
          "internalType": "bool",
          "name": "authorized",
          "type": "bool"
        }
      ],
      "name": "setInstitutionAuthorization",
      "outputs": [],
      "stateMutability": "nonpayable",
      "type": "function"
    },
    {
      "inputs": [
        {
          "internalType": "address",
          "name": "newOwner",
          "type": "address"
        }
      ],
      "name": "transferOwnership",
      "outputs": [],
      "stateMutability": "nonpayable",
      "type": "function"
    },
    {
      "inputs": [
        {
          "internalType": "uint256",
          "name": "batchId",
          "type": "uint256"
        },
        {
          "internalType": "bytes32",
          "name": "certificateHash",
          "type": "bytes32"
        },
        {
          "internalType": "bytes32[]",
          "name": "merkleProof",
          "type": "bytes32[]"
        }
      ],
      "name": "verifyCertificate",
      "outputs": [
        {
          "internalType": "bool",
          "name": "",
          "type": "bool"
        }
      ],
      "stateMutability": "view",
      "type": "function"
    }
  ],
  "bytecode": "0x608060405234801561001057600080fd5b5061001a33610043565b60018080556004819055336000908152600360205260409020805460ff19169091179055610093565b600080546001600160a01b038381166001600160a01b0319831681178455604051919092169283917f8be0079c531659141344cd1fd0a4f28419497f9722a3daafe3b4186f6b6457e09190a35050565b6110de806100a26000396000f3fe608060405234801561001057600080fd5b50600436106100b45760003560e01c80639e104b2e116100715780639e104b2e14610166578063b32c4d8d14610179578063d56e312d1461018c578063e561dddc1461019f578063eb7aadfc146101a7578063f2fde38b146101ba57600080fd5b806316b784fe146100b95780631a0058f5146100f1578063453b777b14610117578063715018a61461012a5780638462a7f8146101345780638da5cb5b1461014b575b600080fd5b6100dc6100c7366004610d1d565b60036020526000908152604090205460ff1681565b60405190151581526020015b60405180910390f35b6101046100ff366004610ded565b6101cd565b6040516100e89796959493929190610f0d565b6100dc610125366004610e05565b61039e565b61013261041c565b005b61013d60045481565b6040519081526020016100e8565b6000546040516001600160a01b0390911681526020016100e8565b610132610174366004610ded565b610430565b610104610187366004610ded565b610509565b61013261019a366004610d37565b610658565b61013d6106bf565b61013d6101b5366004610d71565b6106d5565b6101326101c8366004610d1d565b6109dd565b60006060806000806000806000600260008a81526020019081526020016000206040518060e00160405290816000820154815260200160018201805461021290611026565b80601f016020809104026020016040519081016040528092919081815260200182805461023e90611026565b801561028b5780601f106102605761010080835404028352916020019161028b565b820191906000526020600020905b81548152906001019060200180831161026e57829003601f168201915b505050505081526020016002820180546102a490611026565b80601f01602080910402602001604051908101604052809291908181526020018280546102d090611026565b801561031d5780601f106102f25761010080835404028352916020019161031d565b820191906000526020600020905b81548152906001019060200180831161030057829003601f168201915b505050505081526020016003820154815260200160048201548152602001600582015481526020016006820160009054906101000a900460ff1615151515815250509050806000015181602001518260400151836060015184608001518560a001518660c00151975097509750975097509750975050919395979092949650565b60008381526002602052604081206006015460ff166103f95760405162461bcd60e51b815260206004820152601260248201527110985d18da081a5cc81b9bdd081d985b1a5960721b60448201526064015b60405180910390fd5b60008481526002602052604090205461041490839085610a56565b949350505050565b610424610a6c565b61042e6000610ac6565b565b3360009081526003602052604090205460ff168061045857506000546001600160a01b031633145b6104745760405162461bcd60e51b81526004016103f090610f9a565b6000818152600260205260409020546104c65760405162461bcd60e51b815260206004820152601460248201527310985d18da08191bd95cc81b9bdd08195e1a5cdd60621b60448201526064016103f0565b600081815260026020526040808220600601805460ff191690555182917ff075b0007ae90c817a200a70f51834ddf8ef8f8f071b4a167588e83664474bbb91a250565b6002602052600090815260409020805460018201805491929161052b90611026565b80601f016020809104026020016040519081016040528092919081815260200182805461055790611026565b80156105a45780601f10610579576101008083540402835291602001916105a4565b820191906000526020600020905b81548152906001019060200180831161058757829003601f168201915b5050505050908060020180546105b990611026565b80601f01602080910402602001604051908101604052809291908181526020018280546105e590611026565b80156106325780601f1061060757610100808354040283529160200191610632565b820191906000526020600020905b81548152906001019060200180831161061557829003601f168201915b505050506003830154600484015460058501546006909501549394919390925060ff1687565b610660610a6c565b6001600160a01b038216600081815260036020908152604091829020805460ff191685151590811790915591519182527fb0b6b94fe25106d9d3c2f7bd955d23d9d06d1bb43a01fd4057e46374ccd5ee06910160405180910390a25050565b600060016004546106d0919061100f565b905090565b3360009081526003602052604081205460ff16806106fd57506000546001600160a01b031633145b6107195760405162461bcd60e51b81526004016103f090610f9a565b610721610b16565b856107645760405162461bcd60e51b8152602060048201526013602482015272125b9d985b1a590813595c9adb19481c9bdbdd606a1b60448201526064016103f0565b60008551116107b55760405162461bcd60e51b815260206004820152601960248201527f496e737469747574696f6e206e616d652072657175697265640000000000000060448201526064016103f0565b60008451116107fd5760405162461bcd60e51b815260206004820152601460248201527310dbdd5c9cd9481b985b59481c995c5d5a5c995960621b60448201526064016103f0565b61076c8311801561081057506108348311155b61085c5760405162461bcd60e51b815260206004820152601760248201527f496e76616c69642067726164756174696f6e207965617200000000000000000060448201526064016103f0565b600082116108ba5760405162461bcd60e51b815260206004820152602560248201527f546f74616c2073747564656e7473206d75737420626520677265617465722074604482015264068616e20360dc1b60648201526084016103f0565b60048054600091826108cb83611061565b909155506040805160e08101825289815260208082018a81528284018a905260608301899052608083018890524260a0840152600160c084018190526000868152600284529490942083518155905180519596509294909361093293908501920190610bfd565b506040820151805161094e916002840191602090910190610bfd565b50606082015160038201556080820151600482015560a0820151600582015560c0909101516006909101805460ff1916911515919091179055604051879082907f8f9c8d86617f597bea2644148f4406531cbb083b541917844eb040e654d959ca906109c1908a908a908a908a90610f61565b60405180910390a390506109d460018055565b95945050505050565b6109e5610a6c565b6001600160a01b038116610a4a5760405162461bcd60e51b815260206004820152602660248201527f4f776e61626c653a206e6577206f776e657220697320746865207a65726f206160448201526564647265737360d01b60648201526084016103f0565b610a5381610ac6565b50565b600082610a638584610b70565b14949350505050565b6000546001600160a01b0316331461042e5760405162461bcd60e51b815260206004820181905260248201527f4f776e61626c653a2063616c6c6572206973206e6f7420746865206f776e657260448201526064016103f0565b600080546001600160a01b038381166001600160a01b0319831681178455604051919092169283917f8be0079c531659141344cd1fd0a4f28419497f9722a3daafe3b4186f6b6457e09190a35050565b60026001541415610b695760405162461bcd60e51b815260206004820152601f60248201527f5265656e7472616e637947756172643a207265656e7472616e742063616c6c0060448201526064016103f0565b6002600155565b600081815b8451811015610bc357610baf82868381518110610ba257634e487b7160e01b600052603260045260246000fd5b6020026020010151610bcb565b915080610bbb81611061565b915050610b75565b509392505050565b6000818310610be7576000828152602084905260409020610bf6565b60008381526020839052604090205b9392505050565b828054610c0990611026565b90600052602060002090601f016020900481019282610c2b5760008555610c71565b82601f10610c4457805160ff1916838001178555610c71565b82800160010185558215610c71579182015b82811115610c71578251825591602001919060010190610c56565b50610c7d929150610c81565b5090565b5b80821115610c7d5760008155600101610c82565b80356001600160a01b0381168114610cad57600080fd5b919050565b600082601f830112610cc2578081fd5b813567ffffffffffffffff811115610cdc57610cdc611092565b610cef601f8201601f1916602001610fde565b818152846020838601011115610d03578283fd5b816020850160208301379081016020019190915292915050565b600060208284031215610d2e578081fd5b610bf682610c96565b60008060408385031215610d49578081fd5b610d5283610c96565b915060208301358015158114610d66578182fd5b809150509250929050565b600080600080600060a08688031215610d88578081fd5b85359450602086013567ffffffffffffffff80821115610da6578283fd5b610db289838a01610cb2565b95506040880135915080821115610dc7578283fd5b50610dd488828901610cb2565b9598949750949560608101359550608001359392505050565b600060208284031215610dfe578081fd5b5035919050565b600080600060608486031215610e19578283fd5b833592506020808501359250604085013567ffffffffffffffff80821115610e3f578384fd5b818701915087601f830112610e52578384fd5b813581811115610e6457610e64611092565b8060051b9150610e75848301610fde565b8181528481019084860184860187018c1015610e8f578788fd5b8795505b83861015610eb1578035835260019590950194918601918601610e93565b508096505050505050509250925092565b60008151808452815b81811015610ee757602081850181015186830182015201610ecb565b81811115610ef85782602083870101525b50601f01601f19169290920160200192915050565b87815260e060208201526000610f2660e0830189610ec2565b8281036040840152610f388189610ec2565b9150508560608301528460808301528360a083015282151560c083015298975050505050505050565b608081526000610f746080830187610ec2565b8281036020840152610f868187610ec2565b604084019590955250506060015292915050565b60208082526024908201527f4e6f7420617574686f72697a656420746f2069737375652063657274696669636040820152636174657360e01b606082015260800190565b604051601f8201601f1916810167ffffffffffffffff8111828210171561100757611007611092565b604052919050565b6000828210156110215761102161107c565b500390565b600181811c9082168061103a57607f821691505b6020821081141561105b57634e487b7160e01b600052602260045260246000fd5b50919050565b60006000198214156110755761107561107c565b5060010190565b634e487b7160e01b600052601160045260246000fd5b634e487b7160e01b600052604160045260246000fdfea26469706673582212207332d1aabaae14edf3d4aca28bfdd85adcc940151cae89ea819e071446052fa464736f6c63430008040033",
  "linkReferences": {},
  "deployedLinkReferences": {}
}